:100000000C9486000C94A3000C94A3000C94A30001
:100010000C94A3000C94A3000C94A3000C94A300D4
:100020000C94EB0F0C94A3000C94A3000C94A3006D
:100030000C94A3000C94A3000C94D50F0C94A30073
:100040000C949E080C94A3000C94B7070C94A30086
:100050000C94EA070C94A3000C94A3000C94A30046
:100060000C94A3000C94A3000C94A3000C94A30084
:100070000C94A3000C94A3000C94A3000C94A30074
:100080000C94A3000C94A3000C94A30003070B177B
:100090002F5FBF0003050914295270004F4B004326
:1000A0004F4E4E454354004552524F52004641492F
:1000B0004C204C494E4B004641494C20444843504B
:1000C000004641494C2054435000534F434B455444
:1000D00020434C4F534544004641494C20444E5325
:1000E000004641494C004E4F204441544100455286
:1000F000524F52202D2044454641554C5453204CDC
:100100004F4144454400302E3663000011241FBE89
:10011000CFEFD0E1DEBFCDBF12E0A0E0B1E0E4E977
:10012000F9E402C005900D92AA3AB107D9F71BE095
:10013000AAEAB2E001C01D92AA32B107E1F70E941B
:100140007B040C94C9240C940000AB98962F9F71EB
:10015000982B9FB9779BFECF1FB8779BFECF67FF89
:1001600003C01FB8779BFECF8FB1AB9A9927089534
:10017000AB986F71682B6FB9779BFECF4FB9779BA8
:10018000FECFAB9A08959C01FB01AB988AE38FB92F
:10019000779906C0FDCF1FB8779BFECF8FB18193B3
:1001A000215030408FEF2F3F3807A9F7AB9A0895C1
:1001B0009C01FB01AB988AE78FB9779906C0FDCF08
:1001C00080818FB9779BFECF3196215030408FEFE1
:1001D0002F3F3807A9F7AB9A08951F93CF93DF936A
:1001E000182FC82FDD27C076D0708091E4029927A0
:1001F000C817D90791F043E06FE180EA0E94B80088
:1002000085E0D595C7958A95E1F74C2F6FE180E899
:100210000E94B80010761093E402DF91CF911F91F5
:1002200008951F93182F0E94ED00612F80E00E9417
:10023000A50099271F910895EF92FF920F931F93A6
:100240007C0184EE0E941101F70181938F0185EEFC
:100250000E941101F701818378010894E11CF11CCF
:1002600082EE0E941101F801818387010F5F1F4F09
:1002700083EE0E941101F701818380EE0E9411013B
:10028000F801818381EE0E9411010F5F1F4FF80179
:1002900081831F910F91FF90EF9008950F931F930B
:1002A000082F162F0E94ED00412F602F80E40E943E
:1002B000B8001F910F910895CF92DF92EF92FF92B5
:1002C0000F931F938C016C010894C11CD11CFC017D
:1002D000608184EE0E944E0176010894E11CF11CBD
:1002E000F801618185EE0E944E0187010F5F1F4F6B
:1002F000F601618182EE0E944E01F701618183EE79
:100300000E944E01F801618180EE0E944E010F5F54
:100310001F4FF801618181EE0E944E011F910F91E4
:10032000FF90EF90DF90CF9008950F931F93682F69
:1003300084ED0E944E0161E082ED0E944E018AEE42
:100340000E94110180FDFBCF60E082ED0E944E0112
:1003500088ED0E941101082F112789ED0E941101DB
:100360009927802B912B1F910F91089581E00E9476
:1003700095018470907096958795969587950895C8
:100380000F931F938B01682F84ED0E944E01602F05
:1003900086ED0E944E01012F1127602F87ED0E94EC
:1003A0004E018AEE0E94110180FDFBCF1F910F913B
:1003B0000895EF92FF920F931F938C017B0160E0F1
:1003C00082E00E944E016AE183E00E944E01602FAC
:1003D00086E00E944E010050164E612F7727005094
:1003E0001A4187E00E944E0140E060E08AE70E94E7
:1003F000B800B701C8010E94D80040E86FE180E86A
:100400000E94B80040E86FE180EA0E94B80042E034
:100410006CE180EA0E94B80048E06FE180E80E9449
:10042000B8001F910F91FF90EF9008950E94D9019D
:100430000895CF92DF92EF92FF920F931F93CF9385
:10044000DF937C01EB016A01890160E082E00E9498
:100450004E016AE183E00E944E01CE01800F682FB9
:1004600086E00E944E01BE016050764E600F711F03
:10047000672F772787E00E944E0140E060E08AE71F
:100480000E94B800209721F0B701CE010E94D80049
:100490000115110521F0B601C8010E94D80040E8FD
:1004A0006FE180E80E94B80040E86FE180EA0E94B6
:1004B000B80042E06CE180EA0E94B80048E06FE1D9
:1004C00080E80E94B800DF91CF911F910F91FF90BB
:1004D000EF90DF90CF9008950E9419020895CF9277
:1004E000DF92EF92FF920F931F93CF93DF936C01F4
:1004F0007B018CE10E94110186FD03C080E090E049
:1005000086C06091E20280E00E944E016091E202AA
:100510007091E302672F772781E00E944E0160E02F
:100520008AE30E94A500082F11271093E30200938D
:10053000E20260E08AE30E94A5009927982F8827AD
:10054000082B192B1093E3020093E20260E08AE388
:100550000E94A500C82FDD2760E08AE30E94A50065
:100560009927982F8827C82BD92B60E08AE30E940F
:10057000A50060E08AE30E94A500CC15DD0508F423
:100580006E01B701C6010E94C30089E00E941101FB
:10059000082F1127102F002788E00E941101E82E54
:1005A0008BE00E9411019927D82FCC278AE00E9466
:1005B00011019927C82BD92B6091E2027091E302B7
:1005C000CB010197FF240E291F298017910718F0EE
:1005D000C817D90738F46C2F8CE00E944E016D2F9C
:1005E00077270CC061508CE00E944E016091E202BE
:1005F0007091E30261507040672F77278DE00E9471
:100600004E0140E46EE180E80E94B800C601DF912F
:10061000CF911F910F91FF90EF90DF90CF900895B1
:100620000E946F0208950895EF92FF920F931F9317
:1006300080E091E00E948F0882E70E9411010E94F1
:1006400048074AE0E42E41E0F42EC7010E948F08DB
:100650008DE091E00E948F0882E391E00E948F0874
:100660008FE10E9411010E9448070CE311E0C801CC
:100670000E948F088EE10E9411010E944807C80164
:100680000E948F088DE10E9411010E944807C80155
:100690000E948F088CE10E9411010E94480781E4AA
:1006A00091E00E948F088BE10E9411010E9448078F
:1006B000C7010E948F081F910F91FF90EF9008953E
:1006C0000E9414030895CF93DF93A39AAB9AC19A23
:1006D000B99ABB98BA9A6C9A6B986D986898699811
:1006E000709A6E9AC0E0D0E010C08DE10E941101B6
:1006F00080FD10C021968AE090E00E94EF08CB3088
:10070000D10519F48FEF9FEF84C08DE10E94110194
:1007100080FFEBCF4FEF60E08FEF0E94B80080E5E5
:1007200090E00E94EF081092E3021092E20260E073
:1007300088E00E944E0160E089E00E944E0160E086
:100740008CE00E944E0160E08DE00E944E016FEF50
:100750008AE00E944E0169E18BE00E944E0160E058
:1007600084E00E944E016AE185E00E944E016DE046
:1007700080EC0E944E0160E081EC0E944E0142E359
:1007800062EC80E80E94B80062E186EC0E944E01B3
:100790006CE087EC0E944E0162E184EC0E944E0105
:1007A0006EEE8AEC0E944E0165E08BEC0E944E01D9
:1007B00060E084EE0E944E0160E085EE0E944E01F2
:1007C00064E182EE0E944E0165E783EE0E944E01D5
:1007D0006EE480EE0E944E0165E681EE0E944E01BD
:1007E00060E071E080E10E94C0018FE10E94ED00B5
:1007F00040EC6BE180E80E94B80044E06FE180E8E3
:100800000E94B80062EC71E084E10E94C00180E0C7
:1008100090E0DF91CF9108950E946303992787FDAF
:1008200090950895CF93DF939C01009781F0611517
:10083000710569F0E0E0F0E0EC01DB0103C08D91AF
:1008400089933196E417F507D1F7240F351FC901B5
:10085000DF91CF9108951ABA89EF87BB8DE084BBF1
:1008600011BA8EE182B988E08093640086E088BB8B
:1008700082EF85BB8FEF82BB81EE83B987EF8093D8
:100880006500089585E491E00E948F08809114022C
:10089000909115020E943B078BE591E00E948F0822
:1008A0000895AA9888EC90E00E940109AA9A82E330
:1008B00090E00E9401098DE081BD08C08EE591E0C5
:1008C0000E948F0884E690E00E9401090E940C04B7
:1008D0008F3FA1F38DE181BD85E081BD84E893E088
:1008E0000E945C010E94C8090E948D0F88EC90E074
:1008F0000E94010908950E942B040E94DF08AA9A11
:100900007894C598C69884E190E00E94010981E03E
:100910000E942D09C59884E190E00E940109809110
:100920007B0387FF05C00E94C00F80937C0303C038
:1009300080917C0399270E944F08C598C6988091A2
:1009400065008860809365008091750385FF0CC009
:1009500084E190E00E9401098AE791E00E948F08FB
:100960008CEC91E00E948F0884E190E00E940109E4
:100970008091750385FF0FC08EEF91E00E948F0874
:10098000E0911402F091150209950E943B078BE556
:1009900091E00E948F080E94A61F0E9451040E94AD
:1009A000F21380E090E008950F931F93CF93DF93AD
:1009B000CDB7DEB726970FB6F894DEBF0FBECDBF1A
:1009C0008091AA02882309F04DC081E08093AA0299
:1009D000CE0101960E941C016FE973E08CEB92E05E
:1009E0000E9410038C01892BD9F180919F038F3FC6
:1009F000A1F48091A0038F3F81F48091A1038F3FE8
:100A000061F48091A2038F3F41F48091A3038F3F53
:100A100021F48091A4038F3F59F046E050E0BE01DD
:100A20006F5F7F4F8FE993E00E946924892BA1F6C5
:100A30008091AB03883081F68091AC03882341F428
:100A40000E501040B8018DEA93E00E941C0FC4CFF5
:100A5000863011F6B8018FE993E00E94FA0ABCCF04
:100A60001092AA0226960FB6F894DEBF0FBECDBF35
:100A7000DF91CF911F910F910895CF93DF93382F7E
:100A8000FB01282F22952F70822F99272F700A970C
:100A900014F4205D01C0295C2193DF01832F992785
:100AA0008F709070232F2F700A9714F4205D01C06F
:100AB000295CFD012193ED011982CF01DF91CF91D6
:100AC0000895CF93DF939C01FB01892F992782958D
:100AD0008F70482F4F700A9718F4842F805D02C0E2
:100AE000842F895C8193832F9927482F4F708F70B3
:100AF00090700A9718F4842F805D02C0842F895C5F
:100B00008193C90144E0969587954A95E1F7482F6E
:100B10004F708F7090700A9718F4842F805D02C018
:100B2000842F895C8193DF01822F8F702F7030704A
:100B30002A30310510F4805D01C0895CFD0181938C
:100B4000ED011982CF01DF91CF910895EF92FF92CD
:100B50000F931F93CF93DF937C018B0120E030E054
:100B600040E050E090E0D7017AE007C0979FC001D5
:100B70001124962F980F905311966C91862F8053C5
:100B80008A30A0F3292FEA16FB0609F44CC06E3216
:100B900009F049C0932FFD017AE006C0979FC0017C
:100BA0001124962F980F905361813196862F805390
:100BB0008A30A0F3392FAE17BF07A9F16E3299F52D
:100BC000942FDF017AE006C0979FC0011124962F71
:100BD000980F9053ED0169811196862F80538A30CA
:100BE00098F3492FEA17FB07F1F06E32E1F4952FE5
:100BF000FD017AE006C0979FC0011124962F980F3F
:100C0000905361813196862F80538A30A0F3592FFB
:100C1000AE17BF0741F0D8012D933D934D935C93E0
:100C20001397CF0101C0C701DF91CF911F910F91A1
:100C3000FF90EF900895FC0120E030E00FC0C90163
:100C4000A3E0880F991FAA95E1F7220F331F280F01
:100C5000391F240F311D2053304031964081842F9D
:100C600080538A3060F3C9010895DC01FB011182D1
:100C7000108214C0808191819C0153E0220F331FA8
:100C80005A95E1F7880F991F820F931F91838083F4
:100C90002D91820F911DC097918380838C918053F9
:100CA0008A3040F3CD0108951F93CF93DF93EC0179
:100CB000FB01122F892B19F09A0140E031C0222349
:100CC000D9F780E381932FC0CE01B9010E947F2420
:100CD0006115710519F4442331F418C0CB018F70EC
:100CE00090700A9720F4862F8F70805D03C0862F46
:100CF0008F70895C8193629FC001639F900D729F8A
:100D0000900D1124C81BD90B41E004C0112311F030
:100D100080E38193C9016AE070E00E947F249B0117
:100D20002115310589F61082CF01DF91CF911F91F6
:100D30000895FC0140E050E022C0822F80538A30A9
:100D400020F433272053304012C0822F8156863042
:100D500020F43327275530400AC0822F8154863033
:100D600018F02FEF30E003C033272753304064E002
:100D7000440F551F6A95E1F7420F531F31962081AA
:100D8000213210F02D33C9F6CA0108950F931F9335
:100D9000CF93DF93EC018B01FB01108201C0219600
:100DA00088818032E1F38A33D1F38A30C9F08D3003
:100DB000B9F08062809317039E012F5F3F4F8981B6
:100DC000806280931803E9012196109219038D33F4
:100DD00009F4E90187E193E00E949906F801808314
:100DE000CE01DF91CF911F910F910895EF92FF9265
:100DF0000F931F937C0107E113E0FC01808120E049
:100E000044E650E0B80199270E945406C8010E94A8
:100E10008F088EE20E945208F701818120E044E6AB
:100E200050E0B80199270E945406C8010E948F081B
:100E30008EE20E945208F701828120E044E650E0F1
:100E4000B80199270E945406C8010E948F088EE2BB
:100E50000E945208F701838120E044E650E0B80187
:100E600099270E945406C8010E948F081F910F9174
:100E7000FF90EF9008950F931F9307E113E0B801DF
:100E80000E946105C8010E948F081F910F9108956B
:100E90000F931F9307E113E0B8010E943D05C801BD
:100EA0000E948F081F910F9108950F931F938C013B
:100EB000FC0180810E9448078AE30E945208F801E1
:100EC00081810E9448078AE30E945208F8018281CA
:100ED0000E9448078AE30E945208F80183810E9419
:100EE00048078AE30E945208F80184810E9448075B
:100EF0008AE30E945208F80185810E9448071F91E9
:100F00000F910895CF93DF93CDB7DEB724970FB637
:100F1000F894DEBF0FBECDBF69837A838B839C8339
:100F20008C810E9448078B810E944807FE01319600
:100F300081810E94480789810E94480724960FB644
:100F4000F894DEBF0FBECDBFDF91CF9108950F9310
:100F50001F9307E113E020E040E157E2B8010E944F
:100F60005406C8010E948F081F910F9108951F9287
:100F70000F920FB60F9211248F939F93EF93FF93CD
:100F8000C59A9CB180916D038534D8F480916F032C
:100F9000E82FFF27E85DFC4F90838F5F80936F03FE
:100FA00080916F03853410F010926F0380916D0370
:100FB0008F5F80936D0380916D03813410F01A9AD6
:100FC000A89AFF91EF919F918F910F900FBE0F9074
:100FD0001F9018951F920F920FB60F9211248F93A6
:100FE00081E080936E038F910F900FBE0F901F9042
:100FF000189510926F0320916F032093270320917F
:10100000270320936D0321E020936E0328ED2AB976
:1010100089B9892F9927809390001A981B9810926C
:10102000AC021092AB020895089580916D0388235D
:10103000E1F380912703E82FFF27E85DFC4FE08173
:101040008F5F8093270380912703853410F01092DF
:101050002703F89480916D03815080936D038091F4
:101060006D03813408F41A9878948E2F9927089587
:10107000982FC49A80917B0382FF07C080916E03F2
:101080008823E1F30E99FACF04C080916E03882380
:10109000E1F310926E039CB9892F992708950E945D
:1010A000F90708950E94380808958091AB02909145
:1010B000AC02009729F01092AC021092AB0202C071
:1010C0000E941508992708958091AB029091AC0277
:1010D000892B19F081E090E0089580916D0320E064
:1010E00030E0882311F021E030E0C901089599270C
:1010F00091609093AC028093AB020895CF93DF93FD
:10110000EC0105C02196F90184910E9452089E01CC
:10111000FE0184918823B1F7DF91CF910895CF9399
:10112000DF93EC01892B21F406C021960E9452081E
:1011300088818823D1F7DF91CF9108951F920F9274
:101140000FB60F9211248F939F93809174038F5F3A
:101150008093740380917103909172030196909330
:10116000720380937103809174038934B0F080918D
:1011700070038F5F809370031092740380917303E8
:10118000882359F080917303815080937303809179
:101190007303882311F40C9400008EEB82BFC49873
:1011A000C5989F918F910F900FBE0F901F9018952B
:1011B0001092AE021092AD0280E090E0089581E0BE
:1011C00087BF87E083BF87EB82BF0895809171035B
:1011D000909172030895809170039927089508955E
:1011E00020917003822F99279093AE028093AD02D5
:1011F000222331F481E090E09093AE028093AD021F
:1012000008954091710350917203209171033091C0
:101210007203241B350B37FF03C0309521953F4FD8
:101220008217930790F70895AC012091AD02309199
:10123000AE022115310519F481E090E00895809106
:10124000700360E070E09927821B930B48175907E1
:1012500010F461E070E0CB010895482F813099F5DA
:10126000A0E0B0E00E94B524802D853A11F040E066
:101270000EC0E5E7F3E02AE030E0D9010E94B52492
:10128000802D81932F5F3F4F23333105B1F71092AB
:1012900084031092850384E180938603A1E0B0E08B
:1012A0000E94B524802D80938703A2E0B0E00E94C5
:1012B000B524802D80938803A3E0B0E00E94B5247C
:1012C000802D809389034230B1F485EAA0E0B0E03C
:1012D000082E0E94BD24E5E7F3E02AE030E081918A
:1012E000D901082E0E94BD242F5F3F4F23333105C3
:1012F00009F44BC0F4CF442309F047C087E2809340
:1013000075038BE28093760382E08093770388EC09
:10131000809378038093790310927B0387E1809315
:101320007C0384E6809381031092820385E080939E
:101330007E038AEF90E09093800380937F0384E0A4
:1013400080937A0381E08093830310929603109236
:101350009703109298031092990310928A031092A7
:101360008B0310928C0310928D0310928E031092B7
:101370008F03109290031092910310929203109297
:1013800093031092940310929503842F9927089544
:10139000EFE5F6E010821182128213821386128624
:1013A0003C9686E0EF3BF807A9F70895E9E6F6E0FA
:1013B00080819181009719F00197918380833C96F9
:1013C00086E0E93CF807A1F70895EF92FF920F93AA
:1013D0001F93FC01E080F1800281138140E050E026
:1013E000EFE5F6E09F012C5F3F4F80819181A28164
:1013F000B3818E159F05A007B10711F4C9010AC07A
:101400004F5F5F4F245F3F4F3C964830510569F76F
:1014100080E090E01F910F91FF90EF900895AF92C0
:10142000BF92CF92DF92EF92FF920F931F93CF93D1
:10143000DF936B017C015A0100E040E050E0CFE512
:10144000D6E0BE01665F7F4F142F88819981AA8103
:10145000BB81C816D906EA06FB0631F488EC90E099
:10146000FB019183808340C0802F9927FC01EE0F00
:10147000FF1FE80FF91FEE0FFF1FEE0FFF1FE15ACE
:10148000F94F2A853B85828593852817390708F40B
:10149000042F812F8F5F4F5F5F4F645F7F4F2C96CC
:1014A0004830510589F68830F9F4202F3327C901D7
:1014B000880F991F820F931F880F991F880F991FFC
:1014C0008C01015A194FF801C082D182E282F38265
:1014D00046E050E0B5018D59994F0E94120488EC06
:1014E00090E0F80193878287DF91CF911F910F9150
:1014F000FF90EF90DF90CF90BF90AF900895EF9264
:10150000FF920F931F937B018C01BA0146E050E0DC
:1015100083EC96E00E941204E092BF06F092C006AF
:101520000093C1061093C2061F910F91FF90EF9098
:101530000895EF92FF920F931F93CF93DF93CDB750
:10154000DEB7AA970FB6F894DEBF0FBECDBF7C0101
:1015500003EC16E046E050E0B801CE0107960E9489
:10156000120446E050E0B801CE0147960E941204F2
:101570008FEF8E838D838C838B838A83898388E02E
:1015800096E09E878D8720E031E0388B2F8788E0BA
:1015900090E09A8B898B86E08B8B84E08C8B3E8BE2
:1015A0002D8B8091BF069091C006A091C106B0918D
:1015B000C2068D8F9E8FAF8FB8A3F7018081918176
:1015C000A281B3818FA398A7A9A7BAA7BE016F5F15
:1015D0007F4F8AE290E00E941602AA960FB6F89416
:1015E000DEBF0FBECDBFDF91CF911F910F91FF9056
:1015F000EF900895EF92FF920F931F93CF93DF9395
:10160000EC017B018C899D8921E08030920709F0F3
:101610004FC02EA13FA148A559A58091BF0690912A
:10162000C006A091C106B091C206281739074A0723
:101630005B0709F048C08E010A5F1F4F46E050E08B
:10164000B801CE010E94120446E050E0B801CE017C
:1016500080960E9412048C8D9D8DAE8DBF8D8EA3C1
:101660009FA3A8A7B9A78091BF069091C006A0919B
:10167000C106B091C2068C8F9D8FAE8FBF8F46E0A2
:1016800050E063EC76E0C8010E94120446E050E0AE
:1016900063EC76E0CE0146960E94120480E092E070
:1016A0009D8B8C8BBE01C70104970E9416020BC054
:1016B0008050924041F46C8D7D8D8E8D9F8D66960D
:1016C000AE010E940F0ADF91CF911F910F91FF9001
:1016D000EF900895EF92FF920F931F93CF93DF93B4
:1016E000CDB7DEB728970FB6F894DEBF0FBECDBFDB
:1016F000FC012191CF012032D9F38F01822F99274C
:101700000E94AF248334910591F1843491052CF427
:101710008234910509F02DC10AC08734910579F111
:101720008035910509F025C186C00F5F1F4FF80174
:1017300080818032D1F3BE016F5F7F4FC8010E946C
:1017400035060817190709F414C18091CD068823BE
:1017500011F00E94031C68EC7CE089819A810E9450
:10176000CF1B8093CD06882341F48DE803C180917F
:10177000CD060E94031C1092CD0680E0FBC0809134
:10178000D4069091D506892B11F485E8F3C080E04A
:101790000E94D01F8EEC96E00E94F6068CE192E04B
:1017A0000E948F088091D2069091D3060E94A707CD
:1017B0008CE192E00E948F088091CB069091CC063C
:1017C0000E94A7078CE192E00E948F081A8219827A
:1017D0000EC08091D4069091D506E80FF91F82853E
:1017E0000E94520889819A8101969A838983E981AE
:1017F000FA818091CB069091CC06E817F90748F35F
:101800008CE192E00E948F088091D4069091D506D9
:101810000E94861F1092D5061092D4061092CC0614
:101820001092CB06809165008860809365008EEFF2
:10183000A1C00F5F1F4FF80180818032D1F399273B
:101840000E949324892B09F494C0BE016B5F7F4FE3
:10185000C8010E948111882321F486E98BC00F5FA3
:101860001F4FF80180818A3311F08823C1F7BE0130
:101870006F5F7F4FC80101960E943506FC01898188
:101880009A81029708F475C080818A3341F4BE01C1
:101890006D5F7F4FCF0101960E94350606C0809193
:1018A000CD060E94F31B9C838B8380E00E94D01F97
:1018B0001092EC061092EB060E94E6089093E9065F
:1018C0008093E8060E94D4048091EB069091EC0688
:1018D0008038910580F50E94E6082091E806309155
:1018E000E906821B930B9C0197FF03C0309521955D
:1018F0003F4F80917903992782179307E4F00E9464
:1019000064088823F9F20E945508182F8091750306
:1019100081FF03C0812F0E9452088091EB069091B5
:10192000EC06FC01ED50F94F108301969093EC0604
:101930008093EB06C1CFE090EB06F090EC062B8194
:101940003C8149815A816D817E818F81988503EF29
:1019500016E00E94861C892B11F486E005C08CE1FC
:1019600092E00E948F0880E01092EC061092EB0645
:1019700001C084E0992728960FB6F894DEBF0FBE09
:10198000CDBFDF91CF911F910F91FF90EF90089500
:10199000EF92FF920F931F93CF93DF938C01EB0194
:1019A0008091D4069091D506892B09F049C00E94F8
:1019B000731F7C019093D5068093D406892B09F47C
:1019C0003FC088819981292F3327982F8827282B7A
:1019D000392B3093D3062093D206F8018485958560
:1019E000A685B7858093CE069093CF06A093D006A8
:1019F000B093D1068C819D81292F3327982F88277A
:101A0000282B392B285030403093CC062093CB061E
:101A10002138310530F080E890E09093CC06809337
:101A2000CB064091CB065091CC062896BE01C7014B
:101A30000A960E94120480916500877F809365005A
:101A4000DF91CF911F910F91FF90EF900895FB01CF
:101A50009C01209530950CC080819181280F391F01
:101A60002817390710F42F5F3F4F425050403296ED
:101A70004230510588F74130510551F48081918100
:101A80009070280F391F2817390710F42F5F3F4F28
:101A9000C901809590950895CF93DF93EB01FA01EA
:101AA00080959095AC01662777270EC028813981F3
:101AB000C901AA27BB27480F591F6A1F7B1F2F5F29
:101AC0003F4F398328833297E230F10578F7EF2BC7
:101AD00061F08881480F511D611D711D06C0607045
:101AE0007070480F591F6A1F7B1FCB01AA27BB27A5
:101AF0000097A105B10599F7CA0180959095DF91EE
:101B0000CF9108959093D7068093D60608951092AA
:101B1000D7061092D60608952F923F924F925F9269
:101B20007F928F929F92AF92BF92CF92DF92EF926D
:101B3000FF920F931F93CF93DF93CDB7DEB7279715
:101B40000FB6F894DEBF0FBECDBF6C011B014A017A
:101B5000290162EFA62E6FEFB62EA80EB91E88E0FF
:101B600090E0F5019587848785E4F6018083809174
:101B700082038183C901840F951F292F3327982F52
:101B80008827282B392B338322838091E00690917C
:101B9000E1069583848301969093E1068093E006A5
:101BA0008091810380871782168280918A039091A9
:101BB0008B03A0918C03B0918D0384879587A687B2
:101BC000B7871386128644E150E0B60180E090E0CA
:101BD0000E94270DF6019387828777241F82F601E2
:101BE000E088F18802891389FFEFEF16FFEFFF0607
:101BF000FFEF0F07FFEF1F0759F48FEF89838A83E9
:101C00008B838C838D838E83BE016F5F7F4F41C03A
:101C100080918E0390918F03A0919003B0919103D6
:101C2000E822F9220A231B2320918A0330918B0397
:101C300040918C0350918D0382239323A423B523D9
:101C4000E816F9060A071B0731F4C60140960E9400
:101C5000E509BC0107C082E993E00E94E509BC01E7
:101C600081E08F8361157105A1F49F81913019F492
:101C700082E993E002C0C60140960E94990A8EE173
:101C800090E00E9401090E94D404EFEF7E16E1F07B
:101C900019C046E050E0C5010E94120446E050E041
:101CA00064E873E0C50106960E9412048EE090E09D
:101CB000880E991E9201A101B401C5010E946C0217
:101CC00080E003C07A948BCF8FEF992787FD9095A2
:101CD00027960FB6F894DEBF0FBECDBFDF91CF9130
:101CE0001F910F91FF90EF90DF90CF90BF90AF903A
:101CF0009F908F907F905F904F903F902F9008958E
:101D0000CF93DF93EC01FB018081882319F08830A9
:101D100009F50BC02091D6063091D7062115310563
:101D2000C9F0CE01F901099515C010828281938115
:101D30000896938382838C859D85AE85BF85888B2D
:101D4000998BAA8BBB8B20E030E060E070E0CE0185
:101D50000E948C0DDF91CF910895CF92DF92EF9288
:101D6000FF920F931F93CF93DF93EC018B016134AC
:101D7000710510F000E410E00E94731F6C010097E1
:101D800019F480E090E04FC078E1E72EF12CE80EE6
:101D9000F91E81E0F701818780918A0390918B037E
:101DA000A0918C03B0918D0384879587A687B78710
:101DB00088819981AA81BB81808B918BA28BB38B07
:101DC00013861286E601AC9688E0F60184A7198294
:101DD0001B821A8281E090E09D838C839F838E8397
:101DE000FE0180E090E002C0878301963196801763
:101DF0009107D1F7085F1F4FA801BE0180E090E076
:101E00000E94270D9B838A830C5E1F4F20E030E0E9
:101E1000A80160E070E0C7010E948C0DC6010E941D
:101E2000861F81E090E0DF91CF911F910F91FF908D
:101E3000EF90DF90CF900895CF93DF93EC0144E1D2
:101E400050E0BC0180E090E00E94270D892B09F052
:101E500061C020918A0330918B0340918C03509193
:101E60008D03211531054105510591F08889998926
:101E7000AA89BB898F3F6FEF96076FEFA6076FEFB9
:101E8000B60731F082179307A407B50709F042C0DF
:101E90008E819F81982F882795FD3CC0AE014850C8
:101EA00050406C857D858E859F850E940F0A8985AF
:101EB000863011F1813189F0813061F58A819B8111
:101EC000492F5527982F8827482B592BBE016C5E28
:101ED0007F4FCE010E94800E1DC08A819B81492FB9
:101EE0005527982F8827482B592BBE016C5E7F4FB2
:101EF000CE010E94101C0EC08A819B81492F55275C
:101F0000982F8827482B592BBE016C5E7F4FCE013E
:101F10000E947F17DF91CF91089560918A0370919D
:101F20008B0380918C0390918D0344E853E00E94D1
:101F30007F0A08951092AF021B981A9880E88ABF12
:101F400089BF089520E030E006C08091B0022F5F85
:101F50003F4F481740F4922FE22FFF27EC56FF4FD8
:101F60004491442391F7892F992708950E94A20F45
:101F7000ECE8F0E0E80FF11DE4918E2F9927089529
:101F80000E949A0F8091AF02882309F4C49A80912D
:101F9000AF02813009F4C59A8091AF02823091F787
:101FA000C69A0E94B60F992708951F920F920FB6F6
:101FB0000F9211248F9382E08093AF021ABE87B7ED
:101FC0008B7F87BF1EBC1DBC1CBC8F910F900FBEAA
:101FD0000F901F9018951F920F920FB60F92112419
:101FE0008F939F938091AF02882369F491E090933F
:101FF000AF02C59A80EC8ABF1DBC1CBC9EBD87B7D2
:10200000846087BF0AC08091AF02813031F48CB503
:102010008093B1028DB58093B0029F918F910F9004
:102020000FBE0F901F901895FC0180818053823065
:1020300030F48093ED06818131968032E1F3CF0157
:1020400008951F93E091F206FF27E251F94F808136
:102050000E94DB1A182F8F70843011F410E01CC01E
:1020600084E08093EA06E091F206FF27E251F94FFF
:1020700080810E94F61AE091F206FF27E251F94FA3
:1020800010828FE192E00E948F088DE80E94D01F9D
:102090001092EC061092EB06812F99271F9108955C
:1020A0009F9928C08091B402882351F40E94EB08C4
:1020B0009093B3028093B20281E08093B4020895BA
:1020C0000E94EB082091B2023091B302821B930B65
:1020D0000B9790F08091B402813051F482E08093AC
:1020E000B40280E0A0E0B0E0082E0E94BD24089574
:1020F000C59A08951092B40208950E94E60840918E
:10210000BB02442311F04230A1F42091B802309177
:10211000B902281B390B37FF03C0309521953F4F7B
:10212000809177039927821793071CF44F5F4093A0
:10213000BB0208951F930D990AC010E08091F1062B
:10214000882309F411E081E08093F10603C0109226
:10215000F10610E00E947D108091BA02833029F4CC
:102160008091BB02833009F411E0812F99271F91E0
:1021700008950E94E6089093B9028093B8021092E5
:10218000BA021092BB0208951F93982F8091750395
:1021900083FF02C010E024C08091BB028823C1F0FD
:1021A000809176039817A1F41091BA021F5F1093E3
:1021B000BA02143088F4133049F482E08093BB02F1
:1021C0000E94E6089093B9028093B8021FEF08C0FE
:1021D0001091BA02112311F01F3F11F00E94B910A3
:1021E000812F99271F9108951F93182F8091EB0637
:1021F0009091EC068038910518F081E090E01FC0C6
:1022000081E08093B7020E94E6089093E9068093EC
:10221000E8068091750381FF03C0812F0E94520858
:102220008091EB069091EC06FC01ED50F94F108384
:1022300001969093EC068093EB0680E090E01F916E
:102240000895EF92FF920F931F93CF93DF937A013C
:10225000C0E0D0E08B0106C0F80181918F010E949F
:1022600052082196CE15DF05B9F7C701DF91CF914E
:102270001F910F91FF90EF900895813019F4109203
:10228000B7021FC08091EB069091EC068038910553
:10229000C0F48091B702882389F10E94E60820915A
:1022A000E8063091E906821B930B9C0197FF03C05F
:1022B000309521953F4F8091780399278217930796
:1022C000ECF41092B7024091EB065091EC064115E8
:1022D000510589F0E091F206FF27E251F94F808124
:1022E00063EF76E099270E941D17882321F0109252
:1022F000EC061092EB0681E090E0089580E090E01B
:102300000895FC019B01808180538A3030F4CF0115
:102310000E94A60581E090E00895BF01C9010E94D6
:10232000DC1D20E0892B09F021E081E02827822FA5
:1023300099270895CF92DF92EF92FF920F931F9308
:10234000CF93DF93CDB7DEB728970FB6F894DEBFF3
:102350000FBECDBF809174078F7D823509F096C185
:10236000109175071F7D96E7E92E97E0F92E03C0BF
:102370000894E11CF11CF70190819032C9F31035EB
:1023800009F43FC01135D8F4163409F4AEC117343E
:1023900060F4143409F48CC0153450F5112309F499
:1023A000A4C1123409F072C15BC1193409F468C0C8
:1023B0001E3409F487C0183409F068C196C1153578
:1023C00009F406C1163550F4133509F405C1143566
:1023D00008F08DC0123509F059C1B8C0193509F49B
:1023E0004FC11A3509F44FC1183509F04FC1CDC09E
:1023F000892F99270E94AF248934910509F0F5C0EF
:10240000F0C08091E60680FF43C1892F99270E9482
:102410009324892B09F43AC185E0C82ED12CCC0E27
:10242000DD1EB601C7010E948111882309F436C15F
:1024300081E08093E7068DEC94E10E94820D68E3D1
:1024400070E0C6010E94AD0E0E94E6089093E90676
:102450008093E80602C00E94D4040E94E6082091FE
:10246000E8063091E906821B930B8059914098F35E
:102470000E94870D8091E706882309F00BC135C1C2
:102480008091830380FF0EC08091220B9091230BDB
:10249000A091240BB091250B0B97A105B10510F469
:1024A00014E801C010E08091E60680FFF1C01DC174
:1024B0008091E60680FFECC00E945722019709F048
:1024C000E9C0EAC08091E60680FFE2C08E010B5FA2
:1024D0001F4FB701C8010E94DC1D892B09F0DEC027
:1024E00080E00E94D01FC8010E94F606B7C080910C
:1024F000E60680FFCDC0C7010E9414108C01E816CB
:10250000F90609F4C3C0BE016B5F7F4F0E948111C1
:10251000882319F4C3C00F5F1F4FF80180818A33ED
:1025200011F08823C1F78A3309F0B0C0BE016D5F96
:102530007F4FC80101960E9435068B819C81892BB3
:1025400009F0AEC0A3C09093F20617C0C7010E9465
:102550001410E816F90609F4C8C0E091ED06FF274B
:10256000E251F94F80810E94DB1A049711F01DE8B7
:10257000BCC08091ED068093F2061092EC0610929A
:10258000EB0686E08093EA0687C0C7010E9414101C
:10259000E816F90679F0E091ED06FF27E251F94FD0
:1025A00080810E94F61AE091ED06FF27E251F94F73
:1025B000108272C081E00E94DB1A0E9448078DE2FF
:1025C0000E94520882E00E94DB1A0E9448078DC0D8
:1025D000C7010E946A0B03C0C7010E943620182F52
:1025E00084C080E0A0E0B0E02BC08335910539F4D1
:1025F00082E00E942D09823009F048C04DC08C3421
:10260000910541F481E00E942D09813009F444C014
:1026100016E86BC0BE016D5F7F4FC7010E94350693
:10262000E816F90699F1F70180818D3369F4BE014E
:102630006F5F7F4FC7010E94C6068981AB81BC8155
:10264000082E0E94BD2428C0AB81BC810E94B52405
:10265000802D99279C838B830E9448071FEF45C0DC
:1026600082E292E00E948F0814BEE0911A02F0917B
:102670001B0285EF91E5938382830C94003835C06B
:102680000E94140332C00E94510406C014E02DC001
:1026900013E82BC016E029C010E027C016E925C0BA
:1026A000E091ED06FF27E251F94F80810E94F61A72
:1026B0008091ED06082F11274B815C816D817E8111
:1026C0008F81988521E231E10E94551B0251194FFB
:1026D000F80180839091ED06E92FFF27E251F94F31
:1026E0008081882309F02FCF1CE8812F0E94D01F02
:1026F00028960FB6F894DEBF0FBECDBFDF91CF9105
:102700001F910F91FF90EF90DF90CF9008951F934E
:10271000982F87FF02C011E061C08091B5029D3003
:1027200001F5882311F410E017C0E82FFF27ED58BA
:10273000F84F10828FE192E00E948F088AE090E0CB
:102740000E94010902C00E9455080E946408882363
:10275000D1F70E949A1111E01092B5021092B602C0
:102760003DC08823A9F0983051F481508093B50280
:102770008F3F41F51092B5021092B60223C08F33FD
:1027800008F5E82FFF27ED58F84F90838F5F0BC0B7
:102790008091B6028823A1F4892F8F7D893431F48A
:1027A0009093730781E08093B5020CC09A3011F0CA
:1027B000903219F41092B60203C081E08093B60201
:1027C00010E001C011E08091750380FF07C0112364
:1027D00029F09A3019F0892F0E945208812F9927E9
:1027E0001F910895EF92FF920F931F9384E08093BF
:1027F000EA06109273071092B7020E94B601809306
:10280000E6068AE090E00E940109EE240E94D404CA
:102810008091EE060E94DB1A049721F40A9902C007
:10282000A89801C0A89AE39409F05EC080E00E94D5
:1028300044178091830380FF07C08091E6069927A3
:10284000817090700E9428230E9450100E94B6014F
:102850002091E60633272170307082179307B1F07C
:102860000E94B6012091E606892B69F0822F8160D3
:102870008093E60687FF0AC08F778093E60681E0A3
:102880000E94D01F03C02E7F2093E6068091EE06A3
:102890000E94DB1A049711F4C69A01C0C698809171
:1028A000EF060E94DB1A049711F4C79A01C0C7987B
:1028B0009D990CC08091EF060E94DB1A049731F4B9
:1028C0008091EF060E94F61A1092EF069C990CC0B8
:1028D0008091EE060E94DB1A049731F48091EE0697
:1028E0000E94F61A1092EE060E949A108823C9F0F0
:1028F0008091EA06833049F0863099F484E0809331
:10290000EA0681E00E943D1103C081E08093EA065F
:102910008FE192E00E948F0880E00E94D01F0E9409
:10292000B9100E946408882349F10E945508F82EC6
:102930008091EA06843019F0863001F506C08F2DAB
:102940000E9487130E94B91019C08F2D0E94C410D5
:10295000082F8F3F99F08823F1F407C08091760308
:102960000E94F4101F5F1017C9F78F2D0E94F410FA
:10297000882321F08F2D99270E9477088091EA06FD
:1029800080FD44CF863009F041CF80E00E943D11A8
:102990000E9421103BCF10E0E1CF85E392E00E943E
:1029A0008F080E94E6082091E8063091E906821B14
:1029B000930B0E94A7078BE392E00E948F088091FF
:1029C000E8069091E906885E93409093E90680932B
:1029D000E8061092E70608951092B5071092D00706
:1029E0001092CF071092D1071092EC071092EB07CC
:1029F00008958091B507882341F08091D1078823FD
:102A000019F080E090E0089581E08F5F99270895A4
:102A10000F931F93CF93DF93EC011882EA8DFB8D08
:102A200006C002811381CF010E94861FF8013097F2
:102A3000C1F71B8E1A8EDF91CF911F910F910895D0
:102A40002F923F924F925F926F927F928F929F92BE
:102A5000AF92BF92CF92DF92EF92FF920F931F93AC
:102A6000CF93DF93CDB7DEB723970FB6F894DEBFD1
:102A70000FBECDBF4C011B013A010E94731F2C01F8
:102A8000009719F420E030E0BEC1B8E1AB2EB12CC4
:102A9000A80EB91EACE2CA2ED12CC80ED91E6114E4
:102AA000710461F020E030E0D6015496F10181918B
:102AB0008D932F5F3F4F26153705C9F7F4018081AD
:102AC000682F6F70643020F472E0F1E0FB8308C07F
:102AD000653021F070E01B82673011F471E07B8378
:102AE0006114710419F0786021E02B8384FF04C025
:102AF0007460F401108203C0623009F07061F40167
:102B000081819281F60191838083F4018381948194
:102B1000F60193838283F4012585368547855089A4
:102B2000E52EFF2400271127DA01C901807090707B
:102B3000B070892F9A2FAB2FBB27E82AF92A0A2BCE
:102B40001B2BB22FAA27992788272070407050701E
:102B5000542F432F322F2227822B932BA42BB52BBC
:102B6000E82AF92A0A2B1B2BF601E482F582068358
:102B70001783F4012185328543855485E52EFF2492
:102B800000271127DA01C90180709070B070892F79
:102B90009A2FAB2FBB27E82AF92A0A2B1B2BB22F1F
:102BA000AA2799278827207040705070542F432FF0
:102BB000322F2227822B932BA42BB52BE82AF92A1C
:102BC0000A2B1B2BF601E086F18602871387758797
:102BD00080E090E89787868780E58487118A108A4D
:102BE000653021F0623011F0673091F5F4012585F0
:102BF0003685478550892150304040405040E52E71
:102C0000FF2400271127DA01C90180709070B0708D
:102C1000892F9A2FAB2FBB27E82AF92A0A2B1B2BC7
:102C2000B22FAA2799278827207040705070542F00
:102C3000432F322F2227822B932BA42BB52BE82A4C
:102C4000F92A0A2B1B2BF601E482F58206831783EF
:102C5000930144275527F40185859685A785B0897A
:102C6000820F931FA41FB51F85879687A787B08BF8
:102C70006250623010F090E00BC082E0F601848B6D
:102C800084E0858B168A80E8878B80E6848794E0D1
:102C900085E4F5018083809182038183E92EFF24FE
:102CA00083010E0D1F1DC8018896292F3327982FE9
:102CB0008827282B392B338322838091E00690913B
:102CC000E1069583848301969093E1068093E00664
:102CD0008091810380871782168286E081878091A8
:102CE0008A0390918B03A0918C03B0918D0384870C
:102CF0009587A687B787F40185819681A781B085DE
:102D0000F501808B918BA28BB38B1386128644E1E5
:102D100050E0B50180E090E00E94270DF501938717
:102D20008287B501645F7F4F48E050E080E090E02B
:102D30000E94270D0C5E1F4F212F3327102F0027D5
:102D4000202B312B3A83298342E050E08E010F5F24
:102D50001F4FB8010E94270D20E036E03A832983F7
:102D600042E050E0B8010E94270D24E130E0E20E7D
:102D7000F31EA701B6010E94270DA301B1010E9415
:102D8000270DF601918B808B24E130E0E20EF31EDB
:102D90009301A701B101C5010E948C0D611471045A
:102DA00031F1F40185859685F20195838483138240
:102DB000128228E230E0620E731E7186608688ED12
:102DC0009FEF680E791EF401A28DB38D109759F014
:102DD000FD0182819381009711F0DC01F9CFFD01A3
:102DE0005382428207C0F401538E428E03C0C20157
:102DF0000E94861FFB81FF2329F00E94E608F40150
:102E0000908F878B9301C90123960FB6F894DEBF8C
:102E10000FBECDBFDF91CF911F910F91FF90EF902B
:102E2000DF90CF90BF90AF909F908F907F906F90EA
:102E30005F904F903F902F900895282FE82FFF2705
:102E4000E330F1051CF08FEF9FEF08958823C9F060
:102E50008CE190E0DF01A89FF001A99FF00DB89FE1
:102E6000F00D1124E756F84F80818F70843049F4BB
:102E70008CE1289FC00111248756984F0E9420158D
:102E8000089580E090E00895CF93DF93C5EBD7E0FD
:102E90008881882361F10E94E6084F89588D841B40
:102EA000950B20917F033091800328173907F8F4A0
:102EB000452BE9F0898D8F5F898F0E94E608988FF6
:102EC0008F8BEA8DFB8D309741F440E050E060E05D
:102ED00070E0CE010E9420150AC04085518520E097
:102EE00030E060E070E0CF0148960E948C0D6C9657
:102EF00087E0CD3ED80761F6DF91CF9108952F92FC
:102F00003F924F925F926F927F929F92AF92BF9249
:102F1000CF92DF92EF92FF920F931F93CF93DF93A5
:102F2000CDB7DEB766970FB6F894DEBF0FBECDBF44
:102F30001C016B018A0104511040812F9927302F09
:102F40002227822B932B9A83898380E096E09C83AF
:102F50008B83B101645F7F4F48E050E080E090E0F8
:102F60000E94270D42E050E0BE016F5F7F4F0E943C
:102F7000270D42E050E0BE016D5F7F4F0E94270D9C
:102F8000A801B6010E94270D892B09F0E1C2F101C9
:102F900082819381692E7724982F8827682A792A3D
:102FA000F601848586958695681A71084CEE5FEF68
:102FB000640E751E1A8219826091B5072091B807B8
:102FC0003091B907808191812817390711F5209137
:102FD000B6073091B7078281938128173907C9F462
:102FE0002091BA073091BB074091BC075091BD07B3
:102FF000F10184859585A685B785281739074A0785
:103000005B0739F4BFE09B2E962219F060E070E078
:1030100035C081E090E09A8389836091D107209147
:10302000D4073091D507F60180819181281739079F
:1030300009F01EC22091D2073091D307828193817B
:103040002817390709F014C22091D6073091D70705
:103050004091D8075091D907F10184859585A685BF
:10306000B785281739074A075B0709F001C2AFE0A7
:103070009A2E962209F4FCC161E070E0F601858584
:1030800084FF98C0F6012085318542855385E52E61
:10309000FF2400271127DA01C90180709070B070F9
:1030A000892F9A2FAB2FBB27E82AF92A0A2B1B2B33
:1030B000B22FAA2799278827207040705070542F6C
:1030C000432F322F2227822B932BA42BB52BE82AB8
:1030D000F92A0A2B1B2B8CE190E0689FF001699F75
:1030E000F00D789FF00D1124EB54F84F81899289EF
:1030F000A389B4898E159F05A007B10709F45AC0AA
:10310000E18AF28A038B148B29813A818CE190E069
:10311000289F8001299F100D389F100D11240B54FA
:10312000184FF801A28DB38D1097C1F08189928953
:10313000FD0124813581821B930B97FD09C082819B
:103140009381F801938F828FCD010E94861FDCCF7F
:103150000E94E608F801908F878B03C0F801108E5B
:10316000178AF7E09F16A1F429813A818CE190E05B
:10317000289FF001299FF00D389FF00D1124EB548A
:10318000F84F88E08083E8E09E2E41E04E8B13C02C
:10319000892D8550823070F429813A818CE190E04C
:1031A000289FF001299FF00D389FF00D1124EB545A
:1031B000F84F10821E8AF601858582FF11C0898131
:1031C0009A812CE130E0AC01429FC001439F900DF9
:1031D000529F900D11248B54984F0E9408154DC199
:1031E00054E0951639F087E0981621F098E099168A
:1031F00009F06EC0161417040CF06AC0F6012481A1
:10320000358146815781A980BA80E52EFF240027A9
:103210001127DA01C90180709070B070892F9A2F40
:10322000AB2FBB27E82AF92A0A2B1B2BB22FAA2780
:1032300099278827207040705070542F432F322FC9
:103240002227822B932BA42BB52BE82AF92A0A2BB1
:103250001B2BECE14E2E512CA49CF001A59CF00DF3
:10326000B49CF00D1124EB54F84F81859285A38511
:10327000B485E816F9060A071B0741F5B6016C5E2E
:103280007F4F0588F689E02DA3018A2D8F5F099570
:1032900029813A81249DF001259DF00D349DF00D8A
:1032A0001124EB54F84F7C010027F7FC0095102FF8
:1032B00021853285438554852E0D3F1D401F511FAA
:1032C0002187328743875487892B11F0F1E0FE8BE9
:1032D000F601858580FF65C0F4E09F1631F52981F0
:1032E0003A818CE190E0289FF001299FF00D389FF2
:1032F000F00D1124EB54F84F85E080838185928591
:10330000A385B4850196A11DB11D81879287A387EE
:10331000B48785859685A785B0890196A11DB11DC5
:1033200085879687A787B08B10C147E09416D9F49C
:1033300029813A818CE190E0289FF001299FF00DCE
:10334000389FF00D1124EB54F84F89E0808381857C
:103350009285A385B4850196A11DB11D81879287B1
:10336000A387B487F2C058E09516D9F429813A8131
:103370008CE190E0289FF001299FF00D389FF00D1F
:103380001124EB54F84F8AE0808381859285A385D0
:10339000B4850196A11DB11D81879287A387B4874B
:1033A00052C0892D8150823008F04AC0F6018585CF
:1033B00081FF46C069817A812481358146815781A8
:1033C0008CE190E0689FF001699FF00D789FF00D0F
:1033D0001124EB54F84FE52EFF2400271127DA01C2
:1033E000C90180709070B070892F9A2FAB2FBB27C6
:1033F000E82AF92A0A2B1B2BB22FAA2799278827FC
:10340000207040705070542F432F322F2227822B70
:10341000932BA42BB52BE82AF92A0A2B1B2B0894F3
:10342000E11CF11C011D111DE186F2860387148742
:1034300041E0941611F483E001C084E0808303C06E
:103440005E895130D1F489819A812CE130E0FC0110
:10345000E29FC001E39F900DF29F900D112440E088
:1034600050E060E070E08B54984F0E94201505C03A
:1034700082E090E09A83898305C089819A810297CE
:1034800008F466C0F6018585282F332722FD60C029
:10349000F10184859585A685B7858A879B87AC874A
:1034A000BD87F601828193819F838E838081918184
:1034B000998788871A8A1B8A1C8A1D8A24FF36C02E
:1034C0002481358146815781E52EFF24002711276D
:1034D000DA01C90180709070B070892F9A2FAB2FDC
:1034E000BB27E82AF92A0A2B1B2BB22FAA279927D8
:1034F0008827207040705070542F432F322F22277E
:10350000822B932BA42BB52BE82AF92A0A2B1B2BF1
:10351000C301AA2797FDA095BA2FE80EF91E0A1F2E
:103520001B1FEE86FF86088B198B04C01E861F8624
:10353000188A198A8BE18D8340E050E060E070E0EA
:10354000CE0105960E94201503C0F1E0FE8B29CF25
:1035500066960FB6F894DEBF0FBECDBFDF91CF9158
:103560001F910F91FF90EF90DF90CF90BF90AF90A1
:103570009F907F906F905F904F903F902F90089515
:10358000E82FFF27E330F1053CF080E492E00E9451
:103590008F0880E090E008958CE190E09F01289FE3
:1035A000F001299FF00D389FF00D1124E656F84FD9
:1035B000808191810895E82FFF27E330F1053CF0E9
:1035C00082E692E00E948F0880E090E008958CE10E
:1035D00090E09F01289FF001299FF00D389FF00D8A
:1035E0001124E756F84F808199270895CF93DF93F0
:1035F000282F992703970CF450C085E892E00E9489
:103600008F0880E090E04EC021508CE1289FE001BF
:103610001124CB54D84F888199278F7090700097D0
:1036200011F480E03EC08A30910599F10497B9F415
:1036300087E088838D859E85AF85B8890196A11D19
:10364000B11D8D879E87AF87B88B40E050E060E06A
:1036500070E0CE010E9420150E94F0080AC080E1AF
:10366000888340E050E060E070E0CE010E942015C9
:1036700010C00E94D40480E00E94441788818823EF
:1036800041F08A3031F087E090E00E9414098823ED
:1036900081F3CE010E94081503C0222309F0B4CFA4
:1036A00081E09927DF91CF910895DF92EF92FF9209
:1036B0000F931F93CF93DF937B018C018091B5070C
:1036C000882311F4DD2407C08091D107882309F0F5
:1036D00053C0E1E0DE2E8CE1D89EE0011124CB54F2
:1036E000D84F3E8B2D8B852F9927342F2227822B65
:1036F000932B9C838B83ED82FE820F8318870E941D
:10370000EB089A83898382E2888381E090E0A0E0DD
:10371000B0E08D879E87AF87B88B198A1A8A1B8A7B
:103720001C8A19861A861B861C861B8E1A8E198E79
:10373000188E1F8A0E94F00840E050E060E070E0C0
:10374000CE010E9420150E94D40480E00E944417FC
:103750009881892F8F70843059F0992369F0809176
:103760007E0399270E941409882369F3188204C0F4
:10377000D3948D2D992702C080E090E0DF91CF9106
:103780001F910F91FF90EF90DF9008951092EE0738
:103790001092ED071092F2071092F10708959C0124
:1037A0008091ED079091EE07892B21F4E0E0F0E0A5
:1037B00080E00CC08091F1079091F207892B19F0FD
:1037C00080E090E00895E1E0F0E081E0EE0FFF1F7F
:1037D000EE0FFF1FE351F84F318320837383628321
:1037E0008F5F99270895882319F480E090E0089569
:1037F000E82FFF27EE0FFF1FEE0FFF1FE751F84FD7
:10380000808191810895882351F0E82FFF27EE0FE2
:10381000FF1FEE0FFF1FE751F84F1182108208952E
:10382000AF92BF92CF92DF92EF92FF920F931F93CE
:10383000CF93DF93CDB7DEB722970FB6F894DEBFF4
:103840000FBECDBF5C017B016A01FB0186819781C0
:10385000892B69F180E091E19A838983B501645FE6
:103860007F4F48E050E080E090E00E94270DB701D4
:103870006C5F7F4F42E050E00E94270D42E050E035
:10388000BE016F5F7F4F0E94270DF70124813581B4
:10389000432F5527322F2227422B532BB7010E944B
:1038A000270D892B11F58CEE9FEFC80ED91E0DEE5A
:1038B00017E0F70182819381292F3327982F8827DA
:1038C000282B392BF801808191818217930739F4D5
:1038D00022813381A601B701C501F90109950C5F69
:1038E0001F4FF7E0053F1F0721F722960FB6F89408
:1038F000DEBF0FBECDBFDF91CF911F910F91FF9023
:10390000EF90DF90CF90BF90AF9008952F923F92AD
:103910004F925F926F927F928F929F92AF92BF92DF
:10392000CF92DF92EF92FF920F931F93CF93DF938B
:10393000CDB7DEB724970FB6F894DEBF0FBECDBF6C
:103940003B014C012A0119011C830B8357010E9482
:10395000731F6C01009719F42FEF3FEF9AC08C0191
:10396000085E1F4FECE2EE2EF12CE80EF91E85E406
:10397000F601808F80918203F8018183C5014C9606
:10398000292F3327982F8827282B392B33832283FD
:103990008091E0069091E10695838483019690934F
:1039A000E1068093E006809181038087178216826A
:1039B00081E1818780918A0390918B03A0918C0390
:1039C000B0918D0384879587A687B787608A718AAF
:1039D000828A938A1386128644E150E0B80180E01F
:1039E00090E00E94270DF80193878287852D992703
:1039F000342D2227822B932BF70193838283832DEF
:103A00009927322D2227822B932BF60195A784A785
:103A1000F70117821682C5010896292F3327982FA0
:103A20008827282B392B3583248380E091E19A83E2
:103A30008983B6016C5D7F4F48E050E080E090E004
:103A40000E94270DB601605D7F4F42E050E00E946A
:103A5000270D42E050E0BE016F5F7F4F0E94270DAF
:103A600048E050E0B7010E94270DA5016B817C81E1
:103A70000E94270DF7019783868395014CE150E062
:103A80006B817C81C8010E948C0DC6010E94861F3B
:103A90009501C90124960FB6F894DEBF0FBECDBFC5
:103AA000DF91CF911F910F91FF90EF90DF90CF901A
:103AB000BF90AF909F908F907F906F905F904F904E
:103AC0003F902F90089530E0FC01E60FF71FE08152
:103AD000EE2399F06F5F7F4FE03C19F03F5F20E0ED
:103AE00003C0CB01019608953F5F3B3F30F46F5F09
:103AF0007F4F2F5F2E17C1F7E7CF80E090E008954A
:103B00000F931F93CF93DF93EB018A014831510547
:103B100008F44DC09091BD028985981709F047C0FF
:103B20008A8587FF44C08B858038E9F082E08093E6
:103B3000BC023DC0FB01EC0FFD1F82858093F507A1
:103B4000FB01EC0FFD1F83858093F607FB013C967C
:103B5000EC0FFD1F80818093F70781818093F80728
:103B60009093BC0224C08091BE02682F7727685EC4
:103B70007F4F1AC0CE010E94631DBC010097B9F0AF
:103B8000FC01EC0FFD1F9181FE01E60FF71F808104
:103B9000882311F4913071F2FB01EC0FFD1F818538
:103BA000665F7F4F680F711D6017710718F3DF9113
:103BB000CF911F910F9108952F923F924F925F9254
:103BC0006F927F928F929F92AF92BF92CF92DF922D
:103BD000EF92FF920F931F93CF93DF93CDB7DEB792
:103BE00021970FB6F894DEBF0FBECDBF1C016B014D
:103BF00080919603909197032091980330919903B7
:103C0000822B932B892B09F453C18FEB92E00E94F6
:103C10007624892B81F48091DD029091DE02A091BF
:103C2000DF02B091E002F10180839183A283B3832C
:103C300080E090E03FC11092BC020E94731F4C01D3
:103C4000009709F435C13AE0A32EB12CA80EB91E95
:103C500060E87DE180E098E00E94CF1B89838823A3
:103C600049F4C4010E94861F23C127EF622E2FEF63
:103C7000722E11C197EF692E9FEF792E442455249F
:103C8000F50111929F018091BD02F5018183D90157
:103C9000119681E0F90181839D012F5F3F4FFD0166
:103CA0001182D9011196F90111829D012F5F3F4FB9
:103CB000FD018183D9011196F90111829D012F5FC8
:103CC0003F4FFD011182D9011196F90111829D0129
:103CD0002F5F3F4FFD011182D9011196F901118229
:103CE000FD0111829D012E5F3F4F8093BE02860130
:103CF00091E02CC04F5F5F4F319680818F3218F07A
:103D00008A33C1F702C08D32A9F3D9014D939F5F69
:103D10007901B8019A0105C0FB018191BF01F7014A
:103D20008083215030400894E11CF11CFFEF2F3FAD
:103D30003F0791F7940F040F151F9D01240F351FA6
:103D4000F80180818E3211F40F5F1F4FF8018081DE
:103D50008E3230F08A3321F0F80140E050E0CDCFD0
:103D60009093BE02F9011192AF01F9011182DA01BB
:103D7000119681E0FA018183FD0111828283481648
:103D8000F9F480919A0390919B0320919C033091C8
:103D90009D03822B932B892B99F02091BE02332710
:103DA000205F3F4F60919A0370919B0380919C0329
:103DB00090919D0312C089EF682E8FEF782E26C058
:103DC0002091BE023327205F3F4F60919603709190
:103DD000970380919803909199037901850120E0E0
:103DE00038E045E350E00E94861C0E94EB087C010D
:103DF00009C010917A030E94EB088E191817D8F2A7
:103E00000E94D4048091BC02882399F38091BC0263
:103E10008130B1F58091F5079091F607A091F707F1
:103E2000B091F807F10180839183A283B383F601F7
:103E300001900020E9F78F01015010400C191D0975
:103E40000E311105D0F48091F5079091F607A091FD
:103E5000F707B091F8078093DD029093DE02A093FC
:103E6000DF02B093E002A801B6018FEB92E00E945E
:103E7000120401541D4FF8011082662477240BC0F0
:103E8000823009F4F2CE0894411C511CF3E04F1625
:103E9000510409F0F5CE8091BD028F5F8093BD0281
:103EA00089810E94031CC4010E94861FC30102C0B5
:103EB00087EF9FEF21960FB6F894DEBF0FBECDBF00
:103EC000DF91CF911F910F91FF90EF90DF90CF90F6
:103ED000BF90AF909F908F907F906F905F904F902A
:103EE0003F902F900895E091190BF0911A0B3097A5
:103EF00059F08281938190931A0B8093190B8091D2
:103F0000E1028F5F8093E102CF010895FC01895F98
:103F10009740D8F088E7E93FF80709F0B0F48081CE
:103F200091818F5E9E4B89F42091E102222369F0FA
:103F30008091190B90911A0B93838283F0931A0B43
:103F4000E093190B21502093E1020895E9EFF7E087
:103F50002FEE3EEBAF016EEBDF011A96CF018853D7
:103F60009F4F9383828331832083FD01762F1192AB
:103F70007A95E9F7A853BF4FFC018BE0A332B8074D
:103F800069F71092540A1092530A3093520A209300
:103F9000510A50931A0B4093190B1092E1020895A5
:103FA0008E3F09F462C09091750397FD5EC092FF49
:103FB0004AC0843881F1853880F4843031F185300D
:103FC00030F48823D1F0813009F04BC019C086301D
:103FD00071F1833809F045C01BC08C38F9F08D3879
:103FE00028F4853839F18638E1F527C08639E1F0C3
:103FF000883C31F18D38A9F514C08CE990E002C0FD
:104000008FE990E00E947E082CC087EA90E0FACF0A
:104010008DEA90E0F7CF87EB90E0F4CF81EC90E071
:10402000F1CF8AEC90E0EECF88ED90E0EBCF81EE1F
:1040300090E0E8CF86EE90E0E5CF8EEE90E0E2CF24
:1040400086E091E0DFCF8D3F61F020E044E650E074
:1040500067E173E099270E94540687E193E00E948C
:104060008F0887EA92E00E948F080895CF92DF922E
:10407000EF92FF920F931F93CF93DF93CDB7DEB7ED
:1040800028970FB6F894DEBF0FBECDBFFC0181E0CC
:104090008A8389831C821B8201C031968081803291
:1040A000E1F3BE016F5F7F4FCF010E94C606FC01A6
:1040B00001C0F70181917F018032D9F38D3321F462
:1040C00081E090E09C838B838981873009F4C0C0B4
:1040D000883080F4833021F1843028F4813011F16C
:1040E000823080F521C0853009F45EC0863008F04A
:1040F00093C050C08B3009F41DC18C3038F4893026
:1041000009F4DEC08A3008F0F7C0BEC08D3009F473
:1041100039C18D3008F425C18E3009F051C145C137
:1041200088EC6BC182E08A838A810E94DB1A9C83BF
:104130008B830E94480780E20E9452088A810E9475
:10414000C01A2DC08091D4069091D506892B19F400
:1041500080E090E002C081E090E00E94A70780E24A
:104160000E9452088091CB069091CC060E94A7072E
:1041700080E20E9452088EEC96E00E94F60680E2F1
:104180000E9452088091D2069091D3060E94A70700
:104190008FEF33C1E0911402F091150209959C83D1
:1041A0008B830E943B07F4CFCB80DC8081E0C81674
:1041B000D10469F58E010E5F1F4FB801C7010E943F
:1041C000C606B8010E94C606B8010E94C60667E886
:1041D00073E00E94C60668E873E00E94C60669E8BC
:1041E00073E00E94C60680918703D601082E0E94C4
:1041F000BD2480918803A2E0B0E0082E0E94BD2477
:1042000080918903A3E0B0E0082E0E94BD2484E8D9
:1042100093E00E945507BCCF8B819C810197A9F444
:10422000BE016B5F7F4FC7010E94A605E816F90625
:1042300061F08D8180938A038E8180938B038F81BF
:1042400080938C03888580938D038AE893E06FC008
:104250008B819C810197A9F4BE016B5F7F4FC701E1
:104260000E94A605E816F90661F08D8180938E0301
:104270008E8180938F038F818093900388858093B4
:1042800091038EE893E053C08B819C810197A9F440
:10429000BE016B5F7F4FC7010E94A605E816F906B5
:1042A00061F08D81809392038E81809393038F813F
:1042B0008093940388858093950382E993E037C0C7
:1042C0008B819C810197A9F4BE016B5F7F4FC70171
:1042D0000E94A605E816F90661F08D818093960389
:1042E0008E81809397038F81809398038885809334
:1042F000990386E993E01BC08B819C810197A9F407
:10430000BE016B5F7F4FC7010E94A605E816F90644
:1043100061F08D8180939A038E8180939B038F81BE
:1043200080939C03888580939D038AE993E00E9493
:10433000F6062ECF8B819C81019779F4BE016D5FCB
:104340007F4FC7010E94350625E733E0281739075C
:1043500009F452C08B8180937C0380917C03992760
:1043600015CF8B819C81019749F4BE016E5F7F4F11
:10437000C7010E94C6068A81809361008091610016
:104380008A8310C08B819C81019749F4BE016E5FC6
:104390007F4FC7010E94C6068A81809362008A818E
:1043A000809362000E944807F3CE6091220B7091C7
:1043B000230B8091240B9091250B0E948207E8CE5D
:1043C00080528B32C8F48B819C81019761F4BE01CD
:1043D0006E5F7F4FC7010E94C606E981FF27EB5A37
:1043E000FC4F8A818083E981FF27EB5AFC4F808153
:1043F0000E9448078DEF01C084E0992728960FB6E8
:10440000F894DEBF0FBECDBFDF91CF911F910F910A
:10441000FF90EF90DF90CF9008950F931F93CF936D
:10442000DF93EC01890158815523F1F05F3FF1F0F2
:10443000CE01019679815617A1F49C01572F471799
:1044400008F4542F40E00AC0E42FFF27D801AE0F34
:10445000BF1FEC0FFD1F82818C934F5F4517A1F7A3
:1044600007C0EC01C70FD11D2196DDCF20E030E061
:10447000C901DF91CF911F910F910895CF93DF93E1
:10448000FC01542FE901DC016D9341831196942FB7
:1044900002C089918183915031969F3FD1F7FD01F0
:1044A000E50FF11D9083CF01DF91CF910895DF9249
:1044B000EF92FF920F931F93CF93DF93CDB7DEB7A9
:1044C00027970FB6F894DEBF0FBECDBFCE01029680
:1044D0000E941C018A819B81AC81BD8180931B0B52
:1044E00090931C0BA0931D0BB0931E0B1092220BEC
:1044F0001092230B1092240B1092250B65E773E2A8
:1045000084E490E00E94CF1BD82E882319F480E029
:1045100090E090C00FE913E084EFF80111928A95C2
:10452000E9F791E0F92EF0929F03F092A00386E064
:104530008093A1031092A2031092A8031092A703E4
:104540001092AA031092A9031092AB031092AC032D
:104550001092AD031092AE031092AF031092B0030D
:104560001092B1031092B2031092B3031092B403ED
:104570001092B5031092B6031092B7031092B803CD
:104580001092B9031092BA03C8014C960E941C0104
:1045900080911B0B90911C0BA0911D0BB0911E0BD9
:1045A0008093A3039093A403A093A503B093A603C1
:1045B00083E692E8A3E5B3E680938B0490938C04A2
:1045C000A0938D04B0938E04F9829E012F5F3F4F1C
:1045D00041E065E38FE894E00E943E2284EFE82EFC
:1045E000F12C24E430E043E450E06FEF7FEF8FEFF5
:1045F0009FEF0E94861C0E94EB088C0110921F0BFB
:104600000E94EB08801B863038F40E94D40480910D
:104610001F0B833039F0F4CF80911F0B833011F0E2
:1046200019EF01C011E08D2D0E94031C812F9927E5
:1046300087FD909527960FB6F894DEBF0FBECDBFCD
:10464000DF91CF911F910F91FF90EF90DF90089530
:10465000FF920F931F93F82E0091200B1091210BC6
:104660000E94EB0808171907C1F10E94EB0890930C
:10467000210B8093200B8091220B9091230BA09112
:10468000240BB091250B0097A105B10579F0019796
:10469000A109B1098093220B9093230BA093240BC3
:1046A000B093250B0097A105B105B9F4FF20A9F03F
:1046B0000E945722282F332727FD3095882379F42D
:1046C0008AE090E0A0E0B0E08093220B9093230B6F
:1046D000A093240BB093250B02C020E030E0822F82
:1046E00099271F910F91FF9008958F929F92AF92FB
:1046F000BF92DF92EF92FF920F931F93CF93DF93BE
:10470000CDB7DEB729970FB6F894DEBF0FBECDBF89
:10471000E8E08E2E912C860E971EFB01108512303C
:1047200009F0C5C0F401248135814681578180910B
:104730001B0B90911C0BA0911D0BB0911E0B281709
:1047400039074A075B0709F0B2C058EFA52EB12C14
:10475000A60EB71E9E012F5F3F4F41E065E3C501E6
:104760000E940D228981823021F481E080931F0B09
:1047700038C0853009F09BC080911F0B823021F436
:1047800083E080931F0B93C010931F0BF40180896B
:104790009189A289B38980938A0390938B03A09314
:1047A0008C03B0938D032EE833E044E061E0C50153
:1047B0000E940D2222E933E044E063E0C5010E943B
:1047C0000D2222E23BE044E063E3C5010E940D229A
:1047D00026E933E048E066E0C5010E940D220E9410
:1047E0008D0F46E0E42EF12CEC0EFD1E970144E007
:1047F00066E3C5010E940D2231E0D32EF401D08280
:1048000083E090E0A0E0B0E08A839B83AC83BD832B
:104810008E010E5F1F4F980141E065E3C5010E94C4
:104820003E22970144E066E30E943E229401205F0D
:104830003F4F44E062E30E943E22DA8223E02B8372
:1048400026E0F80122832FE02D83980144E067E3FE
:104850000E943E2280911F0B813029F48FEF9FEF41
:10486000AFEFBFEF04C08E819F81A885B98580938B
:10487000260B9093270BA093280BB093290BF401E0
:10488000108E118E128E138E6091260B7091270B55
:104890008091280B9091290B26E0E22E21E0F22E48
:1048A000840124E430E043E450E00E94861C299611
:1048B0000FB6F894DEBF0FBECDBFDF91CF911F9131
:1048C0000F91FF90EF90DF90BF90AF909F908F90EF
:1048D0000895FB01DC0104C08D910190801921F441
:1048E00041505040C8F7881B990B0895FB01DC012B
:1048F0008D91019080190110D9F3990B0895AA1B8D
:10490000BB1B51E107C0AA1FBB1FA617B70710F0BA
:10491000A61BB70B881F991F5A95A9F780959095EC
:10492000BC01CD010895911107C08F9312D0882347
:104930008F9109F0089505C099278827089585FD6E
:10494000FBCF80629111F8CF8136ECF38B37DCF727
:1049500008959111F1CF80538A50E0F708958F9315
:10496000F0DF8F9109F08F7D0895E199FECFBFBBF5
:10497000AEBBE09A11960DB20895E199FECFBFBB90
:10498000AEBB0DBA11960FB6F894E29AE19A0FBE3B
:044990000895FFCFB8
:1049940052657649443A203078000D0A00436E741B
:1049A400726C3A2045434F4E312045434F4E3220DE
:1049B4004553544154202045495220204549450D32
:1049C4000A00202020202020202020002020202039
:1049D4000020202000092D426F6F746C6F616465A4
:1049E40072206164647265737320000D0A004E497D
:1049F4004320696E697469616C697A6174696F6E68
:104A0400206661696C7572652E00754E6574457417
:104A14006865726E65742C20456D626564646564B6
:104A240020496E7465726E6574205443502F49504A
:104A340020737461636B206F7665722045746865BA
:104A4400726E65742C2042657461202D2056657247
:104A540073696F6E20302E36630D0A00092D42658E
:104A640074612056657273696F6E206275696C6437
:104A7400206F6E204D61722032362032303130206A
:104A840061742031333A33353A32370D0A00092D37
:104A9400426F6F746C6F61646572205665727369DE
:104AA4006F6E200003700670007000010D0A000D87
:104AB4000A00456E74657220426F6F746C6F616496
:104AC40065720D0A004F4B202D200030206D7300BD
:104AD400746869732073686F756C646E27742068DA
:104AE400617070656E207463705F73706F72740DA3
:104AF4000A00746869732073686F756C646E277438
:104B04002068617070656E207463705F7374617483
:104B140075730D0A00746869732073686F756C642B
:104B24006E27742068617070656E207463705F63B3
:0A4B34006C6F73650D0A000D0A0096
:00000001FF
